{
  "_format": "hh-sol-artifact-1",
  "contractName": "BulkTransfer",
  "sourceName": "contracts/BulkTransfer.sol",
  "abi": [
    {
      "inputs": [
        {
          "internalType": "address",
          "name": "muonTokenAddress",
          "type": "address"
        }
      ],
      "stateMutability": "nonpayable",
      "type": "constructor"
    },
    {
      "anonymous": false,
      "inputs": [
        {
          "indexed": true,
          "internalType": "address",
          "name": "previousOwner",
          "type": "address"
        },
        {
          "indexed": true,
          "internalType": "address",
          "name": "newOwner",
          "type": "address"
        }
      ],
      "name": "OwnershipTransferred",
      "type": "event"
    },
    {
      "inputs": [
        {
          "internalType": "uint256",
          "name": "amount",
          "type": "uint256"
        },
        {
          "internalType": "address",
          "name": "_to",
          "type": "address"
        },
        {
          "internalType": "address",
          "name": "_tokenAddr",
          "type": "address"
        }
      ],
      "name": "adminWithdraw",
      "outputs": [],
      "stateMutability": "nonpayable",
      "type": "function"
    },
    {
      "inputs": [
        {
          "internalType": "address[]",
          "name": "addresses",
          "type": "address[]"
        },
        {
          "internalType": "uint256[]",
          "name": "amounts",
          "type": "uint256[]"
        }
      ],
      "name": "bulkTransfer",
      "outputs": [],
      "stateMutability": "nonpayable",
      "type": "function"
    },
    {
      "inputs": [],
      "name": "muonToken",
      "outputs": [
        {
          "internalType": "address",
          "name": "",
          "type": "address"
        }
      ],
      "stateMutability": "view",
      "type": "function"
    },
    {
      "inputs": [],
      "name": "owner",
      "outputs": [
        {
          "internalType": "address",
          "name": "",
          "type": "address"
        }
      ],
      "stateMutability": "view",
      "type": "function"
    },
    {
      "inputs": [],
      "name": "renounceOwnership",
      "outputs": [],
      "stateMutability": "nonpayable",
      "type": "function"
    },
    {
      "inputs": [
        {
          "internalType": "address",
          "name": "newOwner",
          "type": "address"
        }
      ],
      "name": "transferOwnership",
      "outputs": [],
      "stateMutability": "nonpayable",
      "type": "function"
    }
  ],
  "bytecode": "0x6080346100a757601f61063c38819003918201601f19168301916001600160401b038311848410176100ac578084926020946040528339810103126100a757516001600160a01b0390818116908190036100a75760005460018060a01b0319903382821617600055604051933391167f8be0079c531659141344cd1fd0a4f28419497f9722a3daafe3b4186f6b6457e0600080a3600154161760015561057990816100c38239f35b600080fd5b634e487b7160e01b600052604160045260246000fdfe60406080815260048036101561001457600080fd5b600091823560e01c83816312f5ea401461035657508063153a1f3e146101e2578063492aceb9146101b9578063715018a61461015c5780638da5cb5b146101305763f2fde38b1461006457600080fd5b3461012c57602036600319011261012c576001600160a01b0382358181169391929084900361012857610095610475565b83156100d657505082546001600160a01b0319811683178455167f8be0079c531659141344cd1fd0a4f28419497f9722a3daafe3b4186f6b6457e08380a380f35b906020608492519162461bcd60e51b8352820152602660248201527f4f776e61626c653a206e6577206f776e657220697320746865207a65726f206160448201526564647265737360d01b6064820152fd5b8480fd5b8280fd5b838234610158578160031936011261015857905490516001600160a01b039091168152602090f35b5080fd5b83346101b657806003193601126101b657610175610475565b80546001600160a01b03198116825581906001600160a01b03167f8be0079c531659141344cd1fd0a4f28419497f9722a3daafe3b4186f6b6457e08280a380f35b80fd5b83823461015857816003193601126101585760015490516001600160a01b039091168152602090f35b503461012c578060031936011261012c5767ffffffffffffffff91803583811161012857610213903690830161043f565b9060249485359081116103525761022d903690850161043f565b610238959195610475565b80840361032157875b84811061024c578880f35b6001546001600160a01b03908a9082166102678489896104cd565b359283168303610158576102b5899161028186888e6104cd565b35885194858094819363a9059cbb60e01b83526020998a98840160209093929193604081019460018060a01b031681520152565b03925af18015610317576102e9575b505060001981146102d757600101610241565b634e487b7160e01b8952601186528789fd5b8161030892903d10610310575b61030081836104f3565b81019061052b565b5038806102c4565b503d6102f6565b85513d8d823e3d90fd5b815162461bcd60e51b8152602081870152600c818901526b0d8cadc40dad2e6dac2e8c6d60a31b6044820152606490fd5b8680fd5b82818534610158576060366003190112610158578035906001600160a01b036024358181169283820361043b5760443592831680930361043b57610398610475565b831561043b57826103d05750505082809281928282156103c7575bf1156103bd575080f35b51903d90823e3d90fd5b506108fc6103b3565b865163a9059cbb60e01b81526001600160a01b039092169082019081526020818101959095529095948693508391829060400103925af19081156104325750610417575080f35b61042e9060203d81116103105761030081836104f3565b5080f35b513d84823e3d90fd5b8580fd5b9181601f840112156104705782359167ffffffffffffffff8311610470576020808501948460051b01011161047057565b600080fd5b6000546001600160a01b0316330361048957565b606460405162461bcd60e51b815260206004820152602060248201527f4f776e61626c653a2063616c6c6572206973206e6f7420746865206f776e65726044820152fd5b91908110156104dd5760051b0190565b634e487b7160e01b600052603260045260246000fd5b90601f8019910116810190811067ffffffffffffffff82111761051557604052565b634e487b7160e01b600052604160045260246000fd5b9081602091031261047057518015158103610470579056fea2646970667358221220e1a8a5d348e9b6e976cca70f5c585827305079eae58b9e1025a0f5f4e824e93364736f6c63430008130033",
  "linkReferences": {},
  "deployedLinkReferences": {}
}