{
  "_format": "hh-sol-artifact-1",
  "contractName": "MuonRewardManager",
  "sourceName": "contracts/MuonRewardManager.sol",
  "abi": [
    {
      "inputs": [
        {
          "internalType": "address",
          "name": "_muonTokenAddress",
          "type": "address"
        },
        {
          "internalType": "address",
          "name": "_bondedTokenAddress",
          "type": "address"
        },
        {
          "internalType": "address",
          "name": "_signer",
          "type": "address"
        },
        {
          "internalType": "uint256",
          "name": "_totalReward",
          "type": "uint256"
        }
      ],
      "stateMutability": "nonpayable",
      "type": "constructor"
    },
    {
      "anonymous": false,
      "inputs": [
        {
          "indexed": true,
          "internalType": "address",
          "name": "previousOwner",
          "type": "address"
        },
        {
          "indexed": true,
          "internalType": "address",
          "name": "newOwner",
          "type": "address"
        }
      ],
      "name": "OwnershipTransferred",
      "type": "event"
    },
    {
      "anonymous": false,
      "inputs": [
        {
          "indexed": true,
          "internalType": "address",
          "name": "claimer",
          "type": "address"
        },
        {
          "indexed": false,
          "internalType": "uint256",
          "name": "rewardAmount",
          "type": "uint256"
        },
        {
          "indexed": true,
          "internalType": "uint256",
          "name": "tokenId",
          "type": "uint256"
        }
      ],
      "name": "RewardClaimed",
      "type": "event"
    },
    {
      "inputs": [],
      "name": "bondedToken",
      "outputs": [
        {
          "internalType": "contract IBondedToken",
          "name": "",
          "type": "address"
        }
      ],
      "stateMutability": "view",
      "type": "function"
    },
    {
      "inputs": [
        {
          "internalType": "uint256",
          "name": "rewardAmount",
          "type": "uint256"
        },
        {
          "internalType": "bytes",
          "name": "signature",
          "type": "bytes"
        }
      ],
      "name": "claimReward",
      "outputs": [
        {
          "internalType": "uint256",
          "name": "",
          "type": "uint256"
        }
      ],
      "stateMutability": "nonpayable",
      "type": "function"
    },
    {
      "inputs": [
        {
          "internalType": "address[]",
          "name": "_user",
          "type": "address[]"
        },
        {
          "internalType": "uint256[]",
          "name": "_rewardAmount",
          "type": "uint256[]"
        },
        {
          "internalType": "uint256[]",
          "name": "_tokenId",
          "type": "uint256[]"
        }
      ],
      "name": "migrate",
      "outputs": [],
      "stateMutability": "nonpayable",
      "type": "function"
    },
    {
      "inputs": [],
      "name": "muonToken",
      "outputs": [
        {
          "internalType": "contract IToken",
          "name": "",
          "type": "address"
        }
      ],
      "stateMutability": "view",
      "type": "function"
    },
    {
      "inputs": [],
      "name": "owner",
      "outputs": [
        {
          "internalType": "address",
          "name": "",
          "type": "address"
        }
      ],
      "stateMutability": "view",
      "type": "function"
    },
    {
      "inputs": [],
      "name": "renounceOwnership",
      "outputs": [],
      "stateMutability": "nonpayable",
      "type": "function"
    },
    {
      "inputs": [
        {
          "internalType": "address",
          "name": "_signer",
          "type": "address"
        }
      ],
      "name": "setSigner",
      "outputs": [],
      "stateMutability": "nonpayable",
      "type": "function"
    },
    {
      "inputs": [],
      "name": "signer",
      "outputs": [
        {
          "internalType": "address",
          "name": "",
          "type": "address"
        }
      ],
      "stateMutability": "view",
      "type": "function"
    },
    {
      "inputs": [],
      "name": "totalReward",
      "outputs": [
        {
          "internalType": "uint256",
          "name": "",
          "type": "uint256"
        }
      ],
      "stateMutability": "view",
      "type": "function"
    },
    {
      "inputs": [
        {
          "internalType": "address",
          "name": "newOwner",
          "type": "address"
        }
      ],
      "name": "transferOwnership",
      "outputs": [],
      "stateMutability": "nonpayable",
      "type": "function"
    },
    {
      "inputs": [
        {
          "internalType": "address",
          "name": "",
          "type": "address"
        }
      ],
      "name": "users",
      "outputs": [
        {
          "internalType": "uint256",
          "name": "rewardAmount",
          "type": "uint256"
        },
        {
          "internalType": "uint256",
          "name": "tokenId",
          "type": "uint256"
        }
      ],
      "stateMutability": "view",
      "type": "function"
    },
    {
      "inputs": [
        {
          "internalType": "address",
          "name": "tokenAddress",
          "type": "address"
        },
        {
          "internalType": "uint256",
          "name": "amount",
          "type": "uint256"
        },
        {
          "internalType": "address",
          "name": "to",
          "type": "address"
        }
      ],
      "name": "withdraw",
      "outputs": [],
      "stateMutability": "nonpayable",
      "type": "function"
    }
  ],
  "bytecode": "0x6080346100e057601f610e6c38819003918201601f19168301916001600160401b038311848410176100e5578084926080946040528339810103126100e057610047816100fb565b610053602083016100fb565b916060610062604083016100fb565b910151916000549160018060a01b03199233848216176000556040519560018060a01b0380948193823391167f8be0079c531659141344cd1fd0a4f28419497f9722a3daafe3b4186f6b6457e0600080a3168560025416176002551683600354161760035516906005541617600555600155610d5c90816101108239f35b600080fd5b634e487b7160e01b600052604160045260246000fd5b51906001600160a01b03821682036100e05756fe608080604052600436101561001357600080fd5b600090813560e01c908163238ac933146109d957508063492aceb9146109b057806369328dec146108d05780636c19e7831461088b578063715018a614610831578063750142e614610813578063754685c51461032e5780638da5cb5b14610307578063a87430ba146102c4578063dfc627ae1461019b578063e36a4ec7146101725763f2fde38b146100a557600080fd5b3461016f57602036600319011261016f576100be610a02565b6100c6610aa2565b6001600160a01b0390811690811561011b57600054826bffffffffffffffffffffffff60a01b821617600055167f8be0079c531659141344cd1fd0a4f28419497f9722a3daafe3b4186f6b6457e0600080a380f35b60405162461bcd60e51b815260206004820152602660248201527f4f776e61626c653a206e6577206f776e657220697320746865207a65726f206160448201526564647265737360d01b6064820152608490fd5b80fd5b503461016f578060031936011261016f576003546040516001600160a01b039091168152602090f35b503461016f57606036600319011261016f5767ffffffffffffffff6004358181116102c0576101ce903690600401610a71565b60249283358181116102bc576101e8903690600401610a71565b90916044359081116102b857610202903690600401610a71565b91909361020d610aa2565b875b81811061021a578880f35b610225818389610d16565b356001600160a01b038116908190036102b457610243828588610d16565b35907ff01da32686223933d8a18a391060918c7f11a3648639edd87ae013e2e27317438b61027285898c610d16565b3593838252846001604060209460048652208381550155604051908152a360001981146102a15760010161020f565b634e487b7160e01b895260116004528789fd5b8980fd5b8680fd5b8580fd5b8280fd5b503461016f57602036600319011261016f5760409081906001600160a01b036102eb610a02565b1681526004602052206001815491015482519182526020820152f35b503461016f578060031936011261016f57546040516001600160a01b039091168152602090f35b503461016f57604036600319011261016f5767ffffffffffffffff6024358181116102c057366023820112156102c0578060040135908282116107ff578390604051926103856020601f19601f8401160185610a4f565b80845236602482840101116102c05780602460209301838601378301015233835260046020526040832090600191828101541590816107f5575b50156107b05760405160208101903360601b8252600435603482015260348152606081018181108682111761079c576040525190206104099161040191610c4f565b919091610b35565b6005546001600160a01b039081169116036107625760025460035460405163095ea7b360e01b81526001600160a01b0391821660048083019190915235602482015291602091839160449183918991165af1908115610757578491610728575b50156106cc576040519161047c83610a1d565b818352602083019060203683376002546001600160a01b031661049e85610b12565b52604051916104ac83610a1d565b838352602083019160203684376004356104c585610b12565b5233875260046020526004356040882055845460043581018091116106b85785556002546001600160a01b031690813b156106b4576040516340c10f1960e01b8152306004808301919091523560248201529188908390604490829084905af180156106a957610681575b5050600354604051638f05183f60e01b815260606004820152955160648701819052929386936001600160a01b0390921692889260848601929190845b8982821061065e57505050506020906003198684030160248701525191828152019490825b87828210610644575050505082908160209533604483015203925af1918215610639578392610604575b5081906040602094338152600486522001558060405160043581527ff01da32686223933d8a18a391060918c7f11a3648639edd87ae013e2e2731743843392a3604051908152f35b9091506020813d602011610631575b8161062060209383610a4f565b810103126102c057519060206105bc565b3d9150610613565b6040513d85823e3d90fd5b835188526020978801978a97508b95509093019201610592565b83516001600160a01b031686528b98508c9650602095860195909301920161056d565b819792971161069557604052943880610530565b634e487b7160e01b82526041600452602482fd5b6040513d8a823e3d90fd5b8780fd5b634e487b7160e01b88526011600452602488fd5b60405162461bcd60e51b815260206004820152602e60248201527f4661696c656420746f20617070726f766520746f2074686520626f6e6465645460448201526d37b5b2b71031b7b73a3930b1ba1760911b6064820152608490fd5b61074a915060203d602011610750575b6107428183610a4f565b810190610afa565b38610469565b503d610738565b6040513d86823e3d90fd5b60405162461bcd60e51b815260206004820152601260248201527124b73b30b634b21039b4b3b730ba3ab9329760711b6044820152606490fd5b634e487b7160e01b87526041600452602487fd5b60405162461bcd60e51b815260206004820152601b60248201527f416c726561647920636c61696d656420746865207265776172642e00000000006044820152606490fd5b90505415386103bf565b634e487b7160e01b84526041600452602484fd5b503461016f578060031936011261016f576020600154604051908152f35b503461016f578060031936011261016f5761084a610aa2565b80546001600160a01b03198116825581906001600160a01b03167f8be0079c531659141344cd1fd0a4f28419497f9722a3daafe3b4186f6b6457e08280a380f35b503461016f57602036600319011261016f576108a5610a02565b6108ad610aa2565b60018060a01b03166bffffffffffffffffffffffff60a01b600554161760055580f35b503461016f57606036600319011261016f57806108eb610a02565b602435906044356001600160a01b03818116928383036102bc5761090d610aa2565b83156102bc57169081610947575050828092819282821561093e575bf1156109325780f35b604051903d90823e3d90fd5b506108fc610929565b60405163a9059cbb60e01b81526001600160a01b039190911660048201526024810193909352919260209284925060449183915af180156109a55761098a575080f35b6109a19060203d8111610750576107428183610a4f565b5080f35b6040513d84823e3d90fd5b503461016f578060031936011261016f576002546040516001600160a01b039091168152602090f35b9050346109fe57816003193601126109fe576005546001600160a01b03168152602090f35b5080fd5b600435906001600160a01b0382168203610a1857565b600080fd5b6040810190811067ffffffffffffffff821117610a3957604052565b634e487b7160e01b600052604160045260246000fd5b90601f8019910116810190811067ffffffffffffffff821117610a3957604052565b9181601f84011215610a185782359167ffffffffffffffff8311610a18576020808501948460051b010111610a1857565b6000546001600160a01b03163303610ab657565b606460405162461bcd60e51b815260206004820152602060248201527f4f776e61626c653a2063616c6c6572206973206e6f7420746865206f776e65726044820152fd5b90816020910312610a1857518015158103610a185790565b805115610b1f5760200190565b634e487b7160e01b600052603260045260246000fd5b6005811015610c395780610b465750565b60018103610b935760405162461bcd60e51b815260206004820152601860248201527f45434453413a20696e76616c6964207369676e617475726500000000000000006044820152606490fd5b60028103610be05760405162461bcd60e51b815260206004820152601f60248201527f45434453413a20696e76616c6964207369676e6174757265206c656e677468006044820152606490fd5b600314610be957565b60405162461bcd60e51b815260206004820152602260248201527f45434453413a20696e76616c6964207369676e6174757265202773272076616c604482015261756560f01b6064820152608490fd5b634e487b7160e01b600052602160045260246000fd5b906041815114600014610c7d57610c79916020820151906060604084015193015160001a90610c87565b9091565b5050600090600290565b9291907f7fffffffffffffffffffffffffffffff5d576e7357a4501ddfe92f46681b20a08311610d0a5791608094939160ff602094604051948552168484015260408301526060820152600093849182805260015afa15610cfd5781516001600160a01b03811615610cf7579190565b50600190565b50604051903d90823e3d90fd5b50505050600090600390565b9190811015610b1f5760051b019056fea2646970667358221220b43267410e49f717515af0e4a8f1f28ead4b8bfe4bba6bdce887a3428877f8a564736f6c63430008130033",
  "linkReferences": {},
  "deployedLinkReferences": {}
}